:100000000200037581741201AEE582600302006F85
:10001000780079007A007B007C007D00EC4D601C4C
:1000200088828983E493A3A882A9838A828B83F040
:10003000A3AA82AB831CBCFFE31D80E07582007520
:1000400083007C007D00EC4D600AE4F0A31CBCFF43
:10005000F51D80F27582007583007C007D00EC4DFB
:10006000600AE4F0A31CBCFFF51D80F21201AD1282
:10007000052080FE436F6D6D616E643A202573002C
:10008000526573706F6E73653A2025730D0A001BFD
:100090005B324A0041444320746573742070726F70
:1000A0006772616D0A46696C653A2025730A436F71
:1000B0006D70696C65643A2025732C2025730A0ADB
:1000C000004144432E63004D6172203237203230AC
:1000D00032340031333A30393A3439000D0A4A4467
:1000E000592D343020746573740D0A0041542B442B
:1000F000564944414242410D0A0041542B56455253
:100100000D0A0041542B424155440D0A0041542B25
:10011000524649440D0A0041542B445649440D0AA5
:100120000041542B5246430D0A0041542B504F5767
:10013000450D0A0041542B434C53530D0A000D50FA
:100140007265737320616E6420686F6C64207468DC
:100150006520424F4F5420627574746F6E20746F27
:10016000207472616E736D69742E0D0A0056527997
:100170004050302E363D25322E3266562C205652B7
:10018000784050302E373D25322E3266560D0A000B
:1001900052583A2025730D0A2052656365697665C9
:1001A000642066726F6D2053544D3332002275A760
:1001B000007597DE7597AD75FF8075EF0675A71012
:1001C00075C12075A70075A90075A900E5A930E7DC
:1001D000FB75A90375A903E5A930E7FB43A4114307
:1001E000A60175E10175E20075E341759810758D02
:1001F000E6858D8B53890F438920D28ED2997582E3
:10020000002275A700C2EF75B28075BC2075B91EBB
:1002100075E80075DF3F75B300D2EF22AA82438EE6
:10022000407592B87593FF85929485939575910466
:100230007B00C3EB9A500BE59130E7FB53917F0BAA
:1002400080F075910022AA82AB837C007D00C3EC14
:100250009AED9B502B7E00BE0400501D7582FAC0A3
:1002600002C003C004C005C00612021CD006D0059F
:10027000D004D003D0020E80DE0CBC00D10D80CEA5
:1002800022AA828542F005F07401800225E0D5F0B3
:10029000FBFB75A720BA0002800ABA0102800FBAE0
:1002A000021E8014EBF4FA52F1EB42D48012EBF40C
:1002B000FA52F2EB42D58008EBF4FA52F3EB42CC5F
:1002C00075A700228582BBC2EDD2EC30EDFD85BD65
:1002D0008285BE83221202C41210AEAA82AB83AC06
:1002E000F0FDC002C003C004C005906C8B75F053D4
:1002F000744012114EAA82AB83ACF0FDE58124FC60
:10030000F581E4C0E074FCC0E0747FC0E07446C0D6
:10031000E08A828B838CF0ED1215A5AA82AB83ACA8
:10032000F0FDE58124FCF5818A828B838CF0ED223F
:10033000AA82AB83ACF0FD75A72075930C75C8102D
:100340007594008A428B438C448D4590A20075F0D1
:100350004A7404121049AA82AB83ACF0FD754218AE
:10036000E4F543F544F5458A828B838CF0ED121059
:1003700049AA82AB83ACF0FDE4C39AFAE49BFB7418
:10038000019CE49D8A958B96D2C943944075A70041
:1003900022AA8275A72010C90280FB8A9275A70045
:1003A00022AA82AB83ACF08A828B838CF012102D50
:1003B000FD60188D82C002C003C004120391D004F6
:1003C000D003D0020ABA00DF0B80DC2275A7201010
:1003D000C80280FB53C83F85928275A7002275A78B
:1003E000207A007B0020C82675A700758214C00201
:1003F000C00312021CD003D00275A7200ABA000164
:100400000BBAA8E1BB61DE75A70075820A22C2C8DB
:1004100053C83F85928275A70022AA82AB83ACF0B5
:10042000C002C003C0041203DEAD82D004D003D0EA
:1004300002BD0A0A8A828B838CF0E402155F8A82ED
:100440008B838CF0ED12155FA3AA82AB8380D175EC
:10045000A720A2C875A70022AA82AB837C007D00DA
:10046000C3EC9AED9B50477E00BE04005039C00299
:10047000C003C004C005C00612044FE433D006D048
:1004800005D004D003D0026001227582FAC002C0F8
:1004900003C004C005C00612021CD006D005D0045B
:1004A000D003D0020E80C20CBC00B50D80B222AACF
:1004B00082AB83ACF0C002C003C004C002C003C062
:1004C000047474C0E07400C0E07480C0E012126E66
:1004D000E58124FAF581C2A0900005120246D004FD
:1004E000D003D0028A828B838CF01203A19000513A
:1004F00075F04012041A90000A120246D2A07451FC
:10050000C0E07400C0E07440C0E07480C0E07400DB
:10051000C0E07480C0E012126EE58124FAF58122F9
:100520009001F4120246748FC0E07400C0E0748041
:10053000C0E012126E15811581158174D3C0E0746C
:1005400000C0E07480C0E074C7C0E07400C0E07414
:1005500080C0E074C1C0E07400C0E07480C0E0748A
:1005600094C0E07400C0E07480C0E012126EE581B7
:1005700024F4F581754207758200120281754206E6
:100580007582001202811202027582041202D58560
:10059000821185831285F013F514900000E4F5F0C4
:1005A000744012135B9001F412024674DCC0E074D4
:1005B00000C0E07480C0E012126E158115811581B3
:1005C000902580E4F5F01203309000EC75F0801275
:1005D00004AF9000FA75F0801204AF90010375F03B
:1005E000801204AF90010D75F0801204AF900117D6
:1005F00075F0801204AF90012175F0801204AF9065
:10060000012A75F0801204AF90013475F080120455
:10061000AF743EC0E07401C0E07480C0E012126E9E
:100620001581158115817582051202D5AE82AF83C1
:10063000AAF0FB8E098F0A8A0B8B0C7582041202BA
:10064000D5AA82AB83ACF0FD8A0D8B0E8C0F8D107A
:1006500074CDC0E074CCC0E0744CC0E0743EC0E027
:100660008A828B838CF0ED121578AA82AB83ACF072
:10067000FDE58124FCF581C011C012C013C0148AAD
:10068000828B838CF0ED1210BAAA82E58124FCF5EE
:1006900081EA70030207D274CDC0E074CCC0E0746C
:1006A0004CC0E0743EC0E0850982850A83850BF06A
:1006B000E50C121578AA82AB83ACF0FDE58124FC31
:1006C000F581C011C012C013C0148A828B838CF0D4
:1006D000ED1210BAAA82E58124FCF581EA700302CA
:1006E00007D2C011C012C013C014850982850A83C5
:1006F000850BF0E50C121578AA82AB83ACF0FDE512
:100700008124FCF581753800753900753A00753B18
:10071000408A828B838CF0ED12128F12135BC01112
:10072000C012C013C014850D82850E83850FF0E5BD
:1007300010121578AA82AB83ACF0FDE58124FCF59C
:1007400081753800753900753A00753B408A828B97
:10075000838CF0ED12128F85821585831685F01734
:10076000F518C011C012C013C014850982850A8310
:10077000850BF0E50C121578AE82AF83AAF0FBE58D
:100780008124FCF581753800753900753A00753B98
:10079000408E828F838AF0EB12128FAA82AB83ACD9
:1007A000F0FDC002C003C004C00585158285168314
:1007B0008517F0E518121200AA82AB83ACF0FDE5B4
:1007C0008124FCF5818A828B838CF0ED12135B020D
:1007D0000FBE74CDC0E074CCC0E0744CC0E0743E79
:1007E000C0E0850D82850E83850FF0E510121200A2
:1007F000AA82AB83ACF0FDE58124FCF581C011C079
:1008000012C013C0148A828B838CF0ED12111EAAC1
:1008100082E58124FCF581EA700302097874CDC079
:10082000E074CCC0E0744CC0E0743EC0E085098246
:10083000850A83850BF0E50C121578AA82AB83AC90
:10084000F0FDE58124FCF581C011C012C013C01475
:100850008A828B838CF0ED1210BAAA82E58124FC87
:10086000F581EA7003020978C011C012C013C014E8
:10087000850982850A83850BF0E50C121578AA821A
:10088000AB83ACF0FDE58124FCF58175380075394A
:1008900000753A00753B408A828B838CF0ED121212
:1008A0008F85821585831685F017F518C00DC00E4B
:1008B000C00FC0108511828512838513F0E51412D4
:1008C0001578AE82AF83AAF0FBE58124FCF581C0E8
:1008D00006C007C002C00390D09E75F0D2743E12CD
:1008E000114EAA82AB83ACF0FDE58124FCF5817545
:1008F0003800753900753A00753B408A828B838CCD
:10090000F0ED12128FAA82AB83ACF0FDC002C003DF
:10091000C004C0058515828516838517F0E5181279
:100920001200AA82AB83ACF0FDE58124FCF5818A3C
:10093000828B838CF0ED12135BC011C012C013C008
:1009400014850982850A83850BF0E50C121578AAB7
:1009500082AB83ACF0FDE58124FCF5817538007530
:100960003900753A00753B408A828B838CF0ED121A
:10097000128F12135B020FBE74CDC0E074CCC0E0C6
:10098000744CC0E0743EC0E0850D82850E83850FF7
:10099000F0E510121200AA82AB83ACF0FDE58124D1
:1009A000FCF581C011C012C013C0148A828B838CE5
:1009B000F0ED12111EAA82E58124FCF581EA700394
:1009C000020B5E74CDC0E074CCC0E0744CC0E07427
:1009D0003EC0E0850982850A83850BF0E50C121282
:1009E00000AA82AB83ACF0FDE58124FCF581C01147
:1009F000C012C013C0148A828B838CF0ED12111EBA
:100A0000AA82E58124FCF581EA7003020B5EC0092D
:100A1000C00AC00BC00C8511828512838513F0E5D6
:100A200014121578AA82AB83ACF0FDE58124FCF5A5
:100A300081C002C003C004C00590D09E75F0D2747E
:100A40003E12114EAA82AB83ACF0FDE58124FCF589
:100A500081753800753900753A00753B408A828B84
:100A6000838CF0ED12128F85821585831685F01721
:100A7000F518C00DC00EC00FC010851182851283FD
:100A80008513F0E514121578AE82AF83AAF0FBE56A
:100A90008124FCF581C006C007C002C00390D09E2F
:100AA00075F0D2743E12114EAA82AB83ACF0FDE514
:100AB0008124FCF581753800753900753A00753B65
:100AC000408A828B838CF0ED12128FAA82AB83ACAA
:100AD000F0FDC002C003C004C005851582851683E1
:100AE0008517F0E518121200AA82AB83ACF0FDE581
:100AF0008124FCF5818A828B838CF0ED12135BC01C
:100B000009C00AC00BC00C8511828512838513F0C1
:100B1000E514121578AA82AB83ACF0FDE58124FCC4
:100B2000F581C002C003C004C00590D09E75F0D20C
:100B3000743E12114EAA82AB83ACF0FDE58124FC19
:100B4000F581753800753900753A00753B408A8229
:100B50008B838CF0ED12128F12135B020FBE74CDDB
:100B6000C0E074CCC0E0744CC0E0743EC0E0850DC1
:100B700082850E83850FF0E510121578AA82AB836B
:100B8000ACF0FDE58124FCF581C011C012C013C09A
:100B9000148A828B838CF0ED1210BAAA82E581242C
:100BA000FCF581EA7003020D2474CDC0E074CCC062
:100BB000E0744CC0E0743EC0E0850982850A8385FC
:100BC0000BF0E50C121200AA82AB83ACF0FDE581BC
:100BD00024FCF581C011C012C013C0148A828B831B
:100BE0008CF0ED12111EAA82E58124FCF581EA70D9
:100BF00003020D24C009C00AC00BC00C85118285F8
:100C000012838513F0E514121578AA82AB83ACF039
:100C1000FDE58124FCF581C002C003C004C005903D
:100C2000D09E75F0D2743E12114EAA82AB83ACF006
:100C3000FDE58124FCF581753800753900753A00B1
:100C4000753B408A828B838CF0ED12128F12135BFE
:100C5000C011C012C013C014850D82850E83850F8C
:100C6000F0E510121578AA82AB83ACF0FDE5812483
:100C7000FCF581753800753900753A00753B408A7E
:100C8000828B838CF0ED12128F85821585831685F9
:100C9000F017F518C009C00AC00BC00C8511828579
:100CA00012838513F0E514121578AE82AF83AAF093
:100CB000FBE58124FCF581C006C007C002C003909B
:100CC000D09E75F0D2743E12114EAA82AB83ACF066
:100CD000FDE58124FCF581753800753900753A0011
:100CE000753B408A828B838CF0ED12128FAA82AB07
:100CF00083ACF0FDC002C003C004C0058515828529
:100D000016838517F0E518121200AA82AB83ACF0A7
:100D1000FDE58124FCF5818A828B838CF0ED121332
:100D20005B020FBE74CDC0E074CCC0E0744CC0E078
:100D3000743EC0E0850D82850E83850FF0E51012AC
:100D40001578AA82AB83ACF0FDE58124FCF581C067
:100D500011C012C013C0148A828B838CF0ED121064
:100D6000BAAA82E58124FCF581EA6060C011C01254
:100D7000C013C014850982850A83850BF0E50C1227
:100D80001578AA82AB83ACF0FDE58124FCF5818A5D
:100D9000828B838CF0ED1210EA1211F1121583AAE6
:100DA00082AB83ACF0FD74CDC0E074CCC0E0C0E099
:100DB000743DC0E08A828B838CF0ED1210BAAA8257
:100DC000E58124FCF581EA7003020FBE74CDC0E01A
:100DD00074CCC0E0744CC0E0743EC0E0850D8285E8
:100DE0000E83850FF0E510121200AA82AB83ACF0DF
:100DF000FDE58124FCF581C011C012C013C0148A26
:100E0000828B838CF0ED12111EAA82E58124FCF501
:100E100081EA6060C011C012C013C01485098285C8
:100E20000A83850BF0E50C121578AA82AB83ACF02F
:100E3000FDE58124FCF5818A828B838CF0ED121014
:100E4000EA1211F1121583AA82AB83ACF0FD74CDC6
:100E5000C0E074CCC0E0C0E0743DC0E08A828B8307
:100E60008CF0ED1210BAAA82E58124FCF581EA70BB
:100E700003020FBEC011C012C013C014850D8285BD
:100E80000E83850FF0E510121578AA82AB83ACF0C3
:100E9000FDE58124FCF5818A828B838CF0ED1210B4
:100EA000EA1211F1121583AA82AB83ACF0FD74CD66
:100EB000C0E074CCC0E0C0E0743DC0E08A828B83A7
:100EC0008CF0ED1210BAAA82E58124FCF581EA705B
:100ED0004B74CDC0E074CCC0E0744CC0E0743EC034
:100EE000E0850982850A83850BF0E50C121578AA46
:100EF00082AB83ACF0FDE58124FCF581C011C0120A
:100F0000C013C0148A828B838CF0ED1210BAAA82AF
:100F1000E58124FCF581EA6003020FBEC011C01216
:100F2000C013C014850D82850E83850FF0E5101265
:100F30001578AA82AB83ACF0FDE58124FCF5818AAB
:100F4000828B838CF0ED1210EA1211F1121583AA34
:100F500082AB83ACF0FD74CDC0E074CCC0E0C0E0E7
:100F6000743DC0E08A828B838CF0ED1210BAAA82A5
:100F7000E58124FCF581EA704574CDC0E074CCC0F5
:100F8000E0744CC0E0743EC0E0850982850A838528
:100F90000BF0E50C121200AA82AB83ACF0FDE581E8
:100FA00024FCF581C011C012C013C0148A828B8347
:100FB0008CF0ED12111EAA82E58124FCF581C00D92
:100FC000C00EC00FC010C009C00AC00BC00C746DA9
:100FD000C0E07401C0E07480C0E012126EE58124AC
:100FE000F5F58190005175F0401203A175822E1223
:100FF000159090001412045812044F400302062664
:1010000090005175F04012041A7451C0E07400C091
:10101000E07440C0E07490C0E07401C0E07480C02F
:10102000E012126EE58124FAF58102062620F714FB
:1010300030F6148883A88220F507E6A8837583001C
:1010400022E280F7E49322E022FB7A20E4FCFDFE1A
:10105000FFE5822582F582E58333F583E5F033F5FC
:10106000F0EB33FB4017DAE98042E5822582F58216
:10107000E58333F583E5F033F5F0EB33FBEC33FC3C
:10108000ED33FDEE33FEEF33FFEC9542ED9543EE8D
:101090009544EF95454013EC9542FCED9543FDEEEC
:1010A0009544FEEF9545FF438201DABEEB22E4ACA6
:1010B00083AB82FAF9748E0216CDFFA8811818123C
:1010C00016F5D2D133E6400730E70B7582012220B6
:1010D000E70675820022C2D11216D7E97003F582A5
:1010E0002230D101B3E433F58222121720700AE5D1
:1010F00082458345F0700122E430D112F4700BE593
:10110000F0F47006E58330E7012290800022700A37
:10111000E5F07006E58320E70122907FFF22FFA81B
:101120008118181216F5D2D133E6400730E70B7557
:1011300082002220E70675820122C2D11216D7E969
:101140007003F5822220D101B3E433F58222121715
:10115000FDBC000302179CEF60FA30D502B2D1E566
:1011600083B4FF030217B2E582B4FF030217B2256E
:101170008340072482400B02179C248314500302EF
:1011800017B2F582EA8DF0A4A8F0EA8EF0A428F850
:10119000E435F0F9EB8DF0A428E935F0F9E433CA31
:1011A0008FF0A429F9EA35F0FAEBF88EF0A429F9CA
:1011B000EA35F0FAE433FBEC8DF0A429F9EA35F0D6
:1011C000FAE43BFBE88FF0A42AFAEB35F0FBE433BA
:1011D000CCFD8EF0A42AFAEB35F0FBE43CFCED8F5D
:1011E000F0A42BFBEC35F0FC20E7031217CA021722
:1011F0007BE58330E709F4F583E582F4F582A322E9
:101200001217FD7900E583B58202800D5003121894
:101210002BE583C39582121845E5D0C465D020E143
:1012200017EA2DFAEB3EFBEC3FFC50097401121853
:1012300045EC4480FC02177BC3EA9DFAEB9EFBEC75
:101240009FFC500FC3E499F9E49AFAE49BFBE49CF9
:10125000FCB2D11217CA02177B0215908582308525
:10126000833185F032851B33901259021C67C00808
:10127000858108E50824FBF533E50824FBF8863072
:10128000088631088632901259121C67D00822AAAB
:1012900082AB83ACF0FDE5384539453A853BF0C279
:1012A000F745F0700990000075F080743F22C0028D
:1012B000C003C004C005E4C0E0C0E07480C0E074B6
:1012C0003FC0E0853882853983853AF0E53B1222BC
:1012D00014AE82E58124FCF581D005D004D003D082
:1012E00002EE60088A828B838CF0ED22C002C0037C
:1012F000C004C005E4C0E0C0E0C0E0C0E08A828B6A
:10130000838CF0ED1210BAAE82E58124FCF581D019
:1013100005D004D003D002EE7007900000E4F5F091
:10132000228A828B838CF0ED1225C4AA82AB83AC17
:10133000F0FDC038C039C03AC03B8A828B838CF044
:10134000ED12114EAA82AB83ACF0FDE58124FCF5D1
:10135000818A828B838CF0ED022225AA82AB83AC3A
:10136000F0FDEA4B4C8DF0C2F745F070088A828B95
:10137000838CF0ED22C002C003C004C005E4C0E0CD
:10138000C0E07480C0E0743FC0E08A828B838CF040
:10139000ED122214AE82E58124FCF581D005D00443
:1013A000D003D002EE600990000075F080743F22F7
:1013B000C002C003C004C005E4C0E0C0E0C0E0C09B
:1013C000E08A828B838CF0ED12111EAE82E58124BF
:1013D000FCF581D005D004D003D002EE600D751964
:1013E00021E4F51A900000E4F5F02275423C7543C3
:1013F000007544408A828B838CF0ED1229448582EB
:101400003885833985F03AF53BC038C039C03AC0D9
:101410003B9014BA75F017743F12114EAE82AF8331
:10142000A8F0F9E58124FCF58174A8C0E074A9C096
:10143000E074D5C0E0743EC0E08E828F8388F0E90E
:10144000121200AE82AF83A8F0F9E58124FCF58189
:10145000C006C007C000C001C006C007C000C00170
:10146000853882853983853AF0E53B1215A5AA8235
:10147000AB83ACF0FDE58124FCF581D001D000D038
:1014800007D006C002C003C004C0058E828F8388C7
:10149000F0E9121200AE82AF83A8F0F9E58124FCD6
:1014A000F5817542FE7543FF8E828F8388F0E9C017
:1014B00006C007C000C0011229DD85823E85833F3A
:1014C00085F040F541853882853983853AF0E53BE2
:1014D0001215A5AA82AB83ACF0FDE58124FCF58151
:1014E000C002C003C004C005853E82853F8385409D
:1014F000F0E541121200AE82AF83A8F0F9E5812435
:10150000FCF581E53C30E028C006C007C000C00102
:101510009004F375F035743F12114EAE82AF83A87C
:10152000F0F9E58124FCF581053CE4B53C02053D7C
:10153000754202E4F543853C82853D83C006C007C1
:10154000C000C00112290C858242858343D001D09E
:1015500000D007D0068E828F8388F0E90229DD2033
:10156000F71030F6118883A88220F507F6A8837556
:10157000830022F280F7F022A8811818C6B2E7C6CD
:10158000021200AC83AB827A007900748E022AA921
:10159000AA82BA0A0810990280FB75990D10990267
:1015A00080FB8A99221217FD30D502B2D1BF000903
:1015B000BC00030217BF0217B2BC000302179CE570
:1015C00083B4FF0BE582B4FF030217BF02179CE54B
:1015D00082B4FF030217B2C395835007247F400BE8
:1015E00002179C24801450030217B2C0E0E4CCCB55
:1015F000CAF98D428E438F44EF54F0C4F54575838C
:10160000068545F0EB84F582E9C4F9EAC4FAEBC437
:10161000FBEC540FC47803D6FC18EBD6FB18EAD6C3
:10162000FA8582F0EDA4A8F0FD8582F0EEA428FEF4
:10163000E435F0F88582F0EFA428FFE435F0F8E90E
:101640009DF9EA9EFAEB9FFBEC98FCAD42AE43AFEE
:101650004430E7101582E92DF9EA3EFAEB3FFBE44E
:101660003CFC80EDC082D58398C3E933F9EA33FAB4
:10167000EB33FBEC33FCC3E99DEA9EEB9FEC94005B
:10168000B3E413F9D002D0E0C44AFAD003D0E0C4E6
:101690004BFBD004D0E0F5F0540FC44CFCD08215C5
:1016A0008230F40FD3EC13FCEB13FBEA13FAE913CB
:1016B000F90582E930E70A74012AFAE43BFBE43CCD
:1016C000FC021793FCABF0AA83A982749EC2D1F5E9
:1016D000821217CA02177B7901AA82E68F82B5822D
:1016E0001318E6B5F00E18E6B5830918E68A82B538
:1016F0008202790022B4800FE5F0700AE58370065B
:10170000E58270027F00EFB6801518B6001018B69B
:10171000000B18B600060808087600220808082200
:10172000122ACDC3749E9582403979001218453033
:10173000D126E9F42401F582EAF43400F583EBF4D0
:101740003400F5F0ECF43400700AE582458345F08E
:10175000700122E430E70F22EC20E71489828A83AB
:101760008BF02230D10AE4F582F583F5F074802203
:1017700074FFF582F583F5F0747F22B98003EA13D4
:10178000B34010EA2401FAE43BFBE43CFC50047C47
:10179000800582BC000EBB000BBA0008E4F5F0F532
:1017A00083F58222A2D1E582138CF092F78B838A93
:1017B0008222E4F583F58275F080F4A2D11322E44D
:1017C000F583F58275F0C0747F227804EC7011E522
:1017D0008224F8500AF582E4C9CACBFCD8EF22EC87
:1017E0007820058220E713D5820122C3E933F9EA84
:1017F00033FAEB33FBEC33FCD8EA158222AA82AB36
:1018000083A2F73392D16002D2F7F582ACF0E58182
:1018100024F9F8E6FD08E6FE0886F008E6A2F733AC
:1018200092D56002D2F7F583AFF022E582C583F549
:1018300082A2D133A2D592D11392D5ECCFFCEBCEBC
:10184000FBEACDFA226040F82582500274FFF5824F
:10185000E824F8501ECCCBCAF9E4CC24F85014CBC1
:10186000CAF9E4CB24F8500BCAF9E4CA24F85003AF
:1018700079002224086010F8C3EC13FCEB13FBEA98
:1018800013FAE913F9D8F122AA827499C0E0741806
:10189000C0E0C022C0238A82220529E4B5290205BE
:1018A0002A22AA8274302AFA24C6500A74072AFA15
:1018B0003000034302208A82021888E582FAC45469
:1018C0000FF582C0021218A2D002740F5AF58202DC
:1018D00018A2AA24AB25AC26AD27AE28752F20EE82
:1018E0002EFEED235401FF4206EA2AFAEB33FBEC0D
:1018F00033FCED33FDC3EE952B4008EEC3952BFE74
:10190000430201D52FD98A248B258C268D278E283A
:10191000227871E624D075F00AA4FA7872E624D011
:101920002AFA78708603BB2D04C3E49AFA752B015A
:10193000C3E464808AF063F08095F05029752F032A
:101940008A0374F6252F401C052BE52F142465F817
:10195000E52F2465F98704A604772E1BEBFA6004B3
:10196000052F80DE8B02EA30E70D78668603786704
:10197000A6037866762E0AE52D600AE52D04FB2580
:101980002BF52B8005300B02052B78658603E4BB15
:101990002D0104FB7006200603300702052B3004DE
:1019A00003021A58300557EB600C75822DC00212E5
:1019B0001888D002801C30060C75822BC0021218C9
:1019C00088D002800D30070A758220C00212188864
:1019D000D00278668604BC2E0C758230C0021218C4
:1019E00088D002152CAC2C152CC3E52B9C4003028F
:1019F0001A9C758230C002121888D00280E7AC2C85
:101A0000152CC3E52B9C500C758220C0021218883F
:101A1000D00280EA78658604BC2D0C75822DC00248
:101A2000121888D002801C30060C75822BC002125E
:101A30001888D002800D30070A758220C002121863
:101A400088D00278668604BC2E52758230C002129D
:101A50001888D002152C8044EB600E75822DC002D0
:101A6000121888D002152C802030060E75822BC0EB
:101A700002121888D002152C800F30070C758220B6
:101A8000C002121888D002152C78668603BB2E0C73
:101A9000758230C002121888D002152C752F01C231
:101AA0000DE52F2465F88603BB4503021B59BB2EA9
:101AB000348A03C3E464808BF063F08095F0500FA8
:101AC000758230C003121888D0031B8B0280E48B10
:101AD00002D20DE52D7038200B03021B5975822EA2
:101AE0001218888074300D278A03EB30E71FC3E497
:101AF0006480852DF063F08095F0500C758230C0C5
:101B000003121888D003152D0B8B0280DD8B023059
:101B10000D0EC3E46480852DF063F08095F05021B4
:101B2000E52F2465F886038B82C002121888D00244
:101B3000300D0EE52F2465F88603BB2E02800215BA
:101B40002D152CC3E46480852DF063F08095F04062
:101B500003200D05052F021AA1C3E46480852DF032
:101B600063F08095F0500A758230121888152D8028
:101B7000E830040FAA2C152CEA6008758220121890
:101B80008880F122E52D7003300B0D7407252DFAA6
:101B9000E52CC39AF52C8006E52C24FAF52C752F3C
:101BA0000078658602BA2B0F20060C786576202017
:101BB0000705752F01052C200419AA2CC3E46480A5
:101BC0008AF063F08095F0500A758220121888150B
:101BD0002C80E7C20DE52F2465F88602BA0002804A
:101BE00069BA451F3000027665C3E46480852DF034
:101BF00063F08095F0500A758230121888152D8098
:101C0000E8D20DC3E52F9402E433FA7014EA700EA3
:101C1000C3E46480852DF063F08095F04003300DBF
:101C200016E52F2465F886028A82121888E52F248B
:101C3000FD5012152D800E7402B52F09300B06755C
:101C4000822E121888052F021BD5300419AA2CC326
:101C5000E464808AF063F08095F0500A7582201267
:101C60001888152C80E722858222858323E4F529B4
:101C7000F52AAA30AB31AC328A828B838CF01210F9
:101C80002DFD74012AF530E43BF5318C32EDFA700C
:101C90000302220DBA25028003022205C204C205F6
:101CA000C206C207C208C209C20AC20BC201C202EE
:101CB000C203752B00752C00752DFFAB30AC31AD18
:101CC000328B828C838DF012102DFAA3AB82AC8301
:101CD0008B308C318D32BA25078A82121888809217
:101CE0008A06BE3000402E8A06EE24C6402774FFC6
:101CF000B52D13E52C75F00AA4FEEA24D02EF52CA0
:101D000070BFD20580BBE52D75F00AA4FEEA24D091
:101D10002EF52D80ACBA2E0A74FFB52DA4752D00BA
:101D2000809F8A06BE6100400E8A06EE2485400729
:101D30005302DFD2008002C200BA20028075BA23AB
:101D400003021DC2BA2A03021DC7BA2B02805FBA62
:101D50002D028055BA4202805FBA4303021E0CBABC
:101D60004403021F47BA4503021F61BA4603021F1C
:101D70005DBA4703021F65BA4903021F47BA4C0206
:101D8000803BBA4E03021F69BA4F03021F4EBA507E
:101D900003021EE0BA5303021E30BA5503021F535A
:101DA000BA5803021F58021F93D204021CC1D20664
:101DB000021CC1D207021CC1D209021CC1D20A02F4
:101DC0001CC1D20B021CC174FFB52D2030090BE5DC
:101DD0003314F88833862C021CC1E53324FEF888BE
:101DE000338606088607188E2C021CC130090BE5C5
:101DF0003314F88833862D021CC1E53324FEF8889D
:101E0000338606088607188E2D021CC130090AE5A4
:101E10003314F888338602800FE53324FEF88833C4
:101E20008603088604188B028A82121888021F987B
:101E3000E53324FDF88833860308860408860518F0
:101E4000188B248C258D268B828C838DF0122BFE93
:101E5000AB82AC838B2E74FFB52D03852E2D200411
:101E60001DC3E52E952C5016E52CC3952EF52CABF5
:101E70002C152CEB600875822012188880F18524BF
:101E8000828525838526F012102DFBFA6029AB2D63
:101E9000152DC3E464808BF063F08095F050188AB0
:101EA00082121888AB24AC25AD260BBB00010C8B2D
:101EB000248C258D2680C7200403021F98C3E52E9D
:101EC000952C4003021F98E52CC3952EF52CAB2CC6
:101ED000152CEB7003021F9875822012188880EE73
:101EE000E53324FDF8883386030886040886051840
:101EF000188B248C258D26E526FB30E7047A438059
:101F000013EB546060047A50800AEB30E6047A499F
:101F100080027A588A82C00212188875823A121892
:101F200088758230121888758278121888D002BAA3
:101F30004902800BBA500280068525821218BB85A3
:101F400024821218BB8051D208752B0A804A752B47
:101F5000088045752B0A8040752B10803BD201808C
:101F600037D2028033D203802FE53324FDF8883343
:101F7000860308860408860518188B248C258D2670
:101F80008B828C838DF0E52912155FA3E52A12154B
:101F90005F80058A82121888200106200203300320
:101FA00070E53324FCF88833860308860408860528
:101FB0000886061818188B248C258D268E27E52474
:101FC000E525E526E5278B828C838DF0EE122ADF4E
:101FD00074FFB52D03752D06300327747F5527FB3D
:101FE0008B28E528EB2BFB8B28E52630E7067401D0
:101FF0004528F528E52824684006749925284002DC
:10200000D202300206121B84021C72121911021C29
:1020100072E52B7003021C727B6A30092BE53314C6
:10202000F88833E6FC3395E0FDFEFF8C248D258E89
:10203000268F2720085EAC247D007E007F008C2444
:102040008D258E268F27804C300A1FE53324FCF81F
:102050008833860408860508860608860718181837
:102060008C248D258E268F27802AE53324FEF88840
:1020700033860408860518ED3395E0FEFF8C248D29
:10208000258E268F2720080CAC24AD257E007F00EE
:102090008E268F27300B43E52445254526452760AE
:1020A000397408B52B0C758230C003121888D00320
:1020B00080287410B52B23758230C003121888D085
:1020C0000330000C758278C003121888D003800A90
:1020D000758258C003121888D003300825AC24AD8F
:1020E00025AE26E527FF30E717C3E49CFCE49DFD01
:1020F000E49EFEE49FFF8C248D258E268F27800290
:10210000C208752E00D20C8B00752800C000121872
:10211000D2D000200C0DE528C4FCE6FD4CF6188852
:10212000038002A628052EB20CE524452545264548
:102130002770D68803E52C7003752C0120051A2022
:102140000417E52E04FCC3952C500E758220C003A5
:10215000121888D003152C80E930080E75822DC026
:1021600003121888D003152C8024E52E6020300639
:102170000E75822BC003121888D003152C800F30E7
:10218000070C758220C003121888D003152C200478
:102190001EAC2C152CC3E52E9C50273005047C303A
:1021A00080027C208C82C003121888D00380E2C396
:1021B000E52E952C5009E52CC3952EF52C80037542
:1021C0002C008B00AB2E152EEB6022B20C200C0ADB
:1021D00008E6C4540FFB8B2880078603740F5BF559
:1021E00028852882C0001218A2D00080D7200403BE
:1021F000021C72AB2C152CEB7003021C7275822032
:1022000012188880EE8A82121888021C7285298230
:10221000852A8322FFA88118181216F51216D7E90D
:102220006401F58222AA82AB83ACF0FDC002C00338
:10223000C004C005E4C0E0C0E0C0E0C0E08A828B1A
:10224000838CF0ED12111EAE82E58124FCF581D065
:1022500005D004D003D002EE700C8A2E8B2F8C3068
:102260008D31C20E800D8A2E8B2F8C30EDB2E7F5AA
:1022700031D20E7495C0E074BFC0E074D6C0E07473
:1022800033C0E0852E82852F838530F0E531121131
:102290001EAA82E58124FCF581EA600990000075A0
:1022A000F080743F227418C0E07472C0E074B1C052
:1022B000E07442C0E0852E82852F838530F0E531C1
:1022C0001210BAAA82E58124FCF581EA6018300E6A
:1022D0000E751922E4F51A90FFFF747FF5F0229035
:1022E0000000E4F5F022C02EC02FC030C03190AA0B
:1022F0003B75F0B8743F12114EAA82AB83ACF0FD6F
:10230000E58124FCF5818A828B838CF0EDC002C0CC
:1023100003C004C0051210EA858232858333D005DC
:10232000D004D003D002E53330E709153274FFB58D
:1023300032021533853282853383C002C003C00464
:10234000C005121583A882A983AEF0FFD005D00482
:10235000D003D002C000C001C006C0078A828B83B0
:102360008CF0ED121578AE82AF83A8F0F9E58124E8
:10237000FCF581E4C0E0C0E0C0E0743FC0E08E82C4
:102380008F8388F0E912111EAE82E58124FCF5816D
:10239000EE70080532E4B5320205338532828533AA
:1023A0008312158385822285832385F024F525C039
:1023B00022C023C024C02590800075F031743F12E4
:1023C000114EAE82AF83A8F0F9E58124FCF581C0FF
:1023D00006C007C000C001852E82852F838530F09E
:1023E000E53112157885823485833585F036F537E9
:1023F000E58124FCF581C022C023C024C025908043
:102400008375F05E74B912114EAE82AF83A8F0F9F5
:10241000E58124FCF581C006C007C000C0018534F9
:10242000828535838536F0E53712157885822685D5
:10243000832785F028F529E58124FCF581C026C095
:1024400027C028C0298526828527838528F0E5298D
:1024500012114EAA82AB83ACF0FDE58124FCF5811C
:10246000C002C003C004C005C002C003C004C00550
:1024700090530875F088743B12114EAE82AF83A85A
:10248000F0F9E58124FCF581E4C0E0C0E07480C08F
:10249000E0743EC0E08E828F8388F0E9121200AEB5
:1024A00082AF83A8F0F9E58124FCF581C026C0271E
:1024B000C028C0298E828F8388F0E912114E858250
:1024C0002A85832B85F02CF52DE58124FCF5819060
:1024D000BF5B75F04C743D12114EAE82AF83A8F015
:1024E000F9E58124FCF581E4C0E0C0E0C0E0743F80
:1024F000C0E08E828F8388F0E9121200AE82AF8333
:10250000A8F0F9E58124FCF581C02AC02BC02CC0BD
:102510002D8E828F8388F0E9121578AE82AF83A862
:10252000F0F9E58124FCF581C006C007C000C001B8
:10253000852A82852B83852CF0E52D1215A5AE8288
:10254000AF83A8F0F9E58124FCF581E4C0E0C0E0A8
:10255000C0E0743FC0E08E828F8388F0E9121200E1
:1025600085822A85832B85F02CF52DE58124FCF5C9
:102570008174012532F542E43533F543852A82859D
:102580002B83852CF0E52D1229DDAA82AB83ACF0DC
:10259000FD300E28C002C003C004C00590000075C5
:1025A000F080743F1215A5AE82AF83A8F0F9E581E3
:1025B00024FCF5818E828F8388F0E9228A828B83C6
:1025C0008CF0ED22AA82AB83ACF0FDC002C003C048
:1025D00004C005E4C0E0C0E0C0E0C0E08A828B83B4
:1025E0008CF0ED1210BAAE82E58124FCF581D005A5
:1025F000D004D003D002EE700D751921E4F51A90C5
:102600000000E4F5F0227542327543007544408ABB
:10261000828B838CF0ED122944AA82AB83ACF0FD4F
:10262000C002C003C004C005E4C0E0C0E0C0E07464
:102630003FC0E08A828B838CF0ED12157885822E64
:1026400085832F85F030F531E58124FCF581D005B7
:10265000D004D003D002C002C003C004C00574F38C
:10266000C0E07404C0E07435C0E0743FC0E08A820A
:102670008B838CF0ED1210BAAE82E58124FCF581DB
:10268000D005D004D003D002EE606EC002C003C0FB
:1026900004C005E4C0E0C0E0C0E0743FC0E0852EA7
:1026A00082852F838530F0E53112157885822E855D
:1026B000832F85F030F531E58124FCF58190000011
:1026C000E4F5F0743F12114EAA82AB83ACF0FDE545
:1026D0008124FCF581E4C0E0C0E0C0E0743FC0E0CC
:1026E0008A828B838CF0ED121200AA82AB83ACF04D
:1026F000FDE58124FCF581804B153274FFB5320273
:102700001533C02EC02FC030C031900000E4F5F06A
:10271000743F12114EAE82AF83A8F0F9E58124FC1C
:10272000F581E4C0E0C0E0C0E0743FC0E08E828F7D
:102730008388F0E9121200AA82AB83ACF0FDE58138
:1027400024FCF581C002C003C004C005852E82852B
:102750002F838530F0E5311215A5858226858327E4
:1027600085F028F529E58124FCF581C026C027C025
:1027700028C0298526828527838528F0E52912111E
:102780004E85822A85832B85F02CF52DE58124FC4E
:10279000F581C02AC02BC02CC02D907E3D75F00D58
:1027A00074BF12114EAE82AF83A8F0F9E58124FC0C
:1027B000F581C006C007C000C001743AC0E0743F94
:1027C000C0E074D4C0E074C0C0E0852A82852B8349
:1027D000852CF0E52D121200AA82AB83ACF0FDE54A
:1027E0008124FCF581D001D000D007D006C002C002
:1027F00003C004C0058E828F8388F0E91215A5AA54
:1028000082AB83ACF0FDE58124FCF581C002C003FE
:10281000C004C0058526828527838528F0E5291216
:10282000114EAA82AB83ACF0FDE58124FCF581C09A
:1028300002C003C004C0058526828527838528F051
:10284000E52912120085822285832385F024F5254F
:10285000E58124FCF581853282853383121583AEB0
:1028600082AF83A8F0F9C006C007C000C001C0064F
:10287000C007C000C00190808375F05E74B912116A
:102880004EAA82AB83ACF0FDE58124FCF581C02229
:10289000C023C024C0258A828B838CF0ED121200E5
:1028A000AA82AB83ACF0FDE58124FCF581D001D098
:1028B00000D007D006C002C003C004C005C006C0D7
:1028C00007C000C00190800075F031743F12114EB6
:1028D000AE82AF83A8F0F9E58124FCF581D005D064
:1028E00004D003D002C006C007C000C0018A828B9A
:1028F000838CF0ED121200AA82AB83ACF0FDE5816F
:1029000024FCF5818A828B838CF0ED22C2D5E5838D
:1029100030E70DD2D5E4C39582F582E49583F58343
:10292000E54330E70DB2D5E4C39542F542E4954363
:10293000F543122A7730D50BE4C39582F582E495EE
:1029400083F58322AA82AB83ACF0FD8A458B468C4B
:10295000478D4885454D85464E85474F854850AE45
:102960004FE550A2E7CE33CE33CE540130E00244DF
:10297000FE3395E08E49E4F54AF54BF54CE54924E4
:1029800082F549E54A34FFF54AE54B34FFF54BE55E
:102990004C34FFF54CAC42AD43AA44AE49AF4A8C2F
:1029A000828D838AF0EE12155FA3EF12155FAA4D98
:1029B000AB4E747F554FFC74805550FD8A458B4655
:1029C0008C478D48743F4548FD8A458B468C478D22
:1029D000488545828546838547F0E54822AA82AB33
:1029E00083ACF0FD8A448B458C468D47AA46E5476B
:1029F000A2E7CA33CA33CA540130E00244FE339519
:102A0000E08A48754900754A00754B00AE42E543BF
:102A1000FF3395E0FAFBEE2548F548EF3549F549D7
:102A2000EA354AF54AEB354BF54BAA487B008A4E0E
:102A3000EB5401A2E0C54E13C54E13C54EF54F75BC
:102A40004D00754C00AE44AF45747F5546FA748016
:102A50005547FBE54C4206E54D4207E54E4202E58F
:102A60004F42038E448F458A468B47854482854575
:102A7000838546F0E547227A10E4FBFCE58225E0F9
:102A8000F582E58333F583EB33FBEC33FCEB9542C6
:102A9000F5F0EC95434006FCABF0438201DADD2211
:102AA000FCABF0AA83A982749EF582C2D1EC30E718
:102AB00016D2D1E9F42401F9EAF43400FAEBF43443
:102AC00000FBECF43400FC1217CA02177BAA82AB9D
:102AD00083A2F73392D16002D2F7F582ACF022C024
:102AE000E0F84582458345F07009F5F0FBFCFDFEFA
:102AF000022BADE823A2F792E0F8A982AA83D2F7CD
:102B0000ABF07C007E07C3749798404074FF2EFEA4
:102B1000740A89F0A4F985F082740A8AF0A4FA850F
:102B2000F083740A8BF0A4FB740529F9EA3582FA64
:102B3000EB3583FB740035F0FCC3EC13FCEB13FBAB
:102B4000EA13FAE913F908EC70EF80BAE8C3947F4E
:102B5000F88B838EF0E4FBFCFDFEFF08C3E933F93C
:102B6000EA33FAE58333F583EB3BD4FBEC3CD4FC4E
:102B7000ED3DD4FDEE3ED4FEEF3FD4FF602D05F0D9
:102B800074052BD4FBE43CD4FCE43DD4FDE43ED4FA
:102B9000FEE43FD4FF758204C3EF13FFEE13FEED96
:102BA00013FDEC13FCEB13FBD582EDD8AF7865D0A9
:102BB000E020E704762B8002762D087906E7C454DE
:102BC0000F4430F608B90603762E08E7540F443058
:102BD000F60819B902E7764508E5F020E704762BF8
:102BE0008004762DF4040875F00A844430F608E574
:102BF000F04430F608E4F690006575F04022AA82B1
:102C0000AB83ACF07D007E008A828B838CF0121047
:102C10002DFFA3AA82AB83EF60070DBD00EA0E80F3
:102C2000E78D828E8322000000000000000000007B
:00000001FF
